{
  "_format": "hh-sol-artifact-1",
  "contractName": "NFTSTORE",
  "sourceName": "contracts/NFTSTORE.sol",
  "abi": [
    {
      "inputs": [],
      "stateMutability": "nonpayable",
      "type": "constructor"
    },
    {
      "inputs": [
        {
          "internalType": "address",
          "name": "sender",
          "type": "address"
        },
        {
          "internalType": "uint256",
          "name": "tokenId",
          "type": "uint256"
        },
        {
          "internalType": "address",
          "name": "owner",
          "type": "address"
        }
      ],
      "name": "ERC721IncorrectOwner",
      "type": "error"
    },
    {
      "inputs": [
        {
          "internalType": "address",
          "name": "operator",
          "type": "address"
        },
        {
          "internalType": "uint256",
          "name": "tokenId",
          "type": "uint256"
        }
      ],
      "name": "ERC721InsufficientApproval",
      "type": "error"
    },
    {
      "inputs": [
        {
          "internalType": "address",
          "name": "approver",
          "type": "address"
        }
      ],
      "name": "ERC721InvalidApprover",
      "type": "error"
    },
    {
      "inputs": [
        {
          "internalType": "address",
          "name": "operator",
          "type": "address"
        }
      ],
      "name": "ERC721InvalidOperator",
      "type": "error"
    },
    {
      "inputs": [
        {
          "internalType": "address",
          "name": "owner",
          "type": "address"
        }
      ],
      "name": "ERC721InvalidOwner",
      "type": "error"
    },
    {
      "inputs": [
        {
          "internalType": "address",
          "name": "receiver",
          "type": "address"
        }
      ],
      "name": "ERC721InvalidReceiver",
      "type": "error"
    },
    {
      "inputs": [
        {
          "internalType": "address",
          "name": "sender",
          "type": "address"
        }
      ],
      "name": "ERC721InvalidSender",
      "type": "error"
    },
    {
      "inputs": [
        {
          "internalType": "uint256",
          "name": "tokenId",
          "type": "uint256"
        }
      ],
      "name": "ERC721NonexistentToken",
      "type": "error"
    },
    {
      "anonymous": false,
      "inputs": [
        {
          "indexed": true,
          "internalType": "address",
          "name": "owner",
          "type": "address"
        },
        {
          "indexed": true,
          "internalType": "address",
          "name": "approved",
          "type": "address"
        },
        {
          "indexed": true,
          "internalType": "uint256",
          "name": "tokenId",
          "type": "uint256"
        }
      ],
      "name": "Approval",
      "type": "event"
    },
    {
      "anonymous": false,
      "inputs": [
        {
          "indexed": true,
          "internalType": "address",
          "name": "owner",
          "type": "address"
        },
        {
          "indexed": true,
          "internalType": "address",
          "name": "operator",
          "type": "address"
        },
        {
          "indexed": false,
          "internalType": "bool",
          "name": "approved",
          "type": "bool"
        }
      ],
      "name": "ApprovalForAll",
      "type": "event"
    },
    {
      "anonymous": false,
      "inputs": [
        {
          "indexed": false,
          "internalType": "uint256",
          "name": "_fromTokenId",
          "type": "uint256"
        },
        {
          "indexed": false,
          "internalType": "uint256",
          "name": "_toTokenId",
          "type": "uint256"
        }
      ],
      "name": "BatchMetadataUpdate",
      "type": "event"
    },
    {
      "anonymous": false,
      "inputs": [
        {
          "indexed": false,
          "internalType": "uint256",
          "name": "_tokenId",
          "type": "uint256"
        }
      ],
      "name": "MetadataUpdate",
      "type": "event"
    },
    {
      "anonymous": false,
      "inputs": [
        {
          "indexed": true,
          "internalType": "address",
          "name": "from",
          "type": "address"
        },
        {
          "indexed": true,
          "internalType": "address",
          "name": "to",
          "type": "address"
        },
        {
          "indexed": true,
          "internalType": "uint256",
          "name": "tokenId",
          "type": "uint256"
        }
      ],
      "name": "Transfer",
      "type": "event"
    },
    {
      "inputs": [
        {
          "internalType": "address",
          "name": "to",
          "type": "address"
        },
        {
          "internalType": "uint256",
          "name": "tokenId",
          "type": "uint256"
        }
      ],
      "name": "approve",
      "outputs": [],
      "stateMutability": "nonpayable",
      "type": "function"
    },
    {
      "inputs": [
        {
          "internalType": "address",
          "name": "owner",
          "type": "address"
        }
      ],
      "name": "balanceOf",
      "outputs": [
        {
          "internalType": "uint256",
          "name": "",
          "type": "uint256"
        }
      ],
      "stateMutability": "view",
      "type": "function"
    },
    {
      "inputs": [
        {
          "internalType": "string",
          "name": "_tokenURI",
          "type": "string"
        },
        {
          "internalType": "uint256",
          "name": "_price",
          "type": "uint256"
        }
      ],
      "name": "createToken",
      "outputs": [
        {
          "internalType": "uint256",
          "name": "",
          "type": "uint256"
        }
      ],
      "stateMutability": "nonpayable",
      "type": "function"
    },
    {
      "inputs": [
        {
          "internalType": "uint256",
          "name": "tokenId",
          "type": "uint256"
        }
      ],
      "name": "executeSale",
      "outputs": [],
      "stateMutability": "payable",
      "type": "function"
    },
    {
      "inputs": [],
      "name": "getAllListedNFTs",
      "outputs": [
        {
          "components": [
            {
              "internalType": "uint256",
              "name": "tokenId",
              "type": "uint256"
            },
            {
              "internalType": "address payable",
              "name": "owner",
              "type": "address"
            },
            {
              "internalType": "address payable",
              "name": "seller",
              "type": "address"
            },
            {
              "internalType": "uint256",
              "name": "price",
              "type": "uint256"
            }
          ],
          "internalType": "struct NFTSTORE.NFTListing[]",
          "name": "",
          "type": "tuple[]"
        }
      ],
      "stateMutability": "view",
      "type": "function"
    },
    {
      "inputs": [
        {
          "internalType": "uint256",
          "name": "tokenId",
          "type": "uint256"
        }
      ],
      "name": "getApproved",
      "outputs": [
        {
          "internalType": "address",
          "name": "",
          "type": "address"
        }
      ],
      "stateMutability": "view",
      "type": "function"
    },
    {
      "inputs": [],
      "name": "getCurrentTokenId",
      "outputs": [
        {
          "internalType": "uint256",
          "name": "",
          "type": "uint256"
        }
      ],
      "stateMutability": "view",
      "type": "function"
    },
    {
      "inputs": [],
      "name": "getListingFeePercent",
      "outputs": [
        {
          "internalType": "uint256",
          "name": "",
          "type": "uint256"
        }
      ],
      "stateMutability": "view",
      "type": "function"
    },
    {
      "inputs": [],
      "name": "getMyNFTs",
      "outputs": [
        {
          "components": [
            {
              "internalType": "uint256",
              "name": "tokenId",
              "type": "uint256"
            },
            {
              "internalType": "address payable",
              "name": "owner",
              "type": "address"
            },
            {
              "internalType": "address payable",
              "name": "seller",
              "type": "address"
            },
            {
              "internalType": "uint256",
              "name": "price",
              "type": "uint256"
            }
          ],
          "internalType": "struct NFTSTORE.NFTListing[]",
          "name": "",
          "type": "tuple[]"
        }
      ],
      "stateMutability": "view",
      "type": "function"
    },
    {
      "inputs": [
        {
          "internalType": "uint256",
          "name": "_tokenId",
          "type": "uint256"
        }
      ],
      "name": "getNFTListing",
      "outputs": [
        {
          "components": [
            {
              "internalType": "uint256",
              "name": "tokenId",
              "type": "uint256"
            },
            {
              "internalType": "address payable",
              "name": "owner",
              "type": "address"
            },
            {
              "internalType": "address payable",
              "name": "seller",
              "type": "address"
            },
            {
              "internalType": "uint256",
              "name": "price",
              "type": "uint256"
            }
          ],
          "internalType": "struct NFTSTORE.NFTListing",
          "name": "",
          "type": "tuple"
        }
      ],
      "stateMutability": "view",
      "type": "function"
    },
    {
      "inputs": [
        {
          "internalType": "address",
          "name": "owner",
          "type": "address"
        },
        {
          "internalType": "address",
          "name": "operator",
          "type": "address"
        }
      ],
      "name": "isApprovedForAll",
      "outputs": [
        {
          "internalType": "bool",
          "name": "",
          "type": "bool"
        }
      ],
      "stateMutability": "view",
      "type": "function"
    },
    {
      "inputs": [],
      "name": "listingFeePercent",
      "outputs": [
        {
          "internalType": "uint256",
          "name": "",
          "type": "uint256"
        }
      ],
      "stateMutability": "view",
      "type": "function"
    },
    {
      "inputs": [],
      "name": "marketplaceOwner",
      "outputs": [
        {
          "internalType": "address payable",
          "name": "",
          "type": "address"
        }
      ],
      "stateMutability": "view",
      "type": "function"
    },
    {
      "inputs": [],
      "name": "name",
      "outputs": [
        {
          "internalType": "string",
          "name": "",
          "type": "string"
        }
      ],
      "stateMutability": "view",
      "type": "function"
    },
    {
      "inputs": [
        {
          "internalType": "uint256",
          "name": "tokenId",
          "type": "uint256"
        }
      ],
      "name": "ownerOf",
      "outputs": [
        {
          "internalType": "address",
          "name": "",
          "type": "address"
        }
      ],
      "stateMutability": "view",
      "type": "function"
    },
    {
      "inputs": [
        {
          "internalType": "address",
          "name": "from",
          "type": "address"
        },
        {
          "internalType": "address",
          "name": "to",
          "type": "address"
        },
        {
          "internalType": "uint256",
          "name": "tokenId",
          "type": "uint256"
        }
      ],
      "name": "safeTransferFrom",
      "outputs": [],
      "stateMutability": "nonpayable",
      "type": "function"
    },
    {
      "inputs": [
        {
          "internalType": "address",
          "name": "from",
          "type": "address"
        },
        {
          "internalType": "address",
          "name": "to",
          "type": "address"
        },
        {
          "internalType": "uint256",
          "name": "tokenId",
          "type": "uint256"
        },
        {
          "internalType": "bytes",
          "name": "data",
          "type": "bytes"
        }
      ],
      "name": "safeTransferFrom",
      "outputs": [],
      "stateMutability": "nonpayable",
      "type": "function"
    },
    {
      "inputs": [
        {
          "internalType": "address",
          "name": "operator",
          "type": "address"
        },
        {
          "internalType": "bool",
          "name": "approved",
          "type": "bool"
        }
      ],
      "name": "setApprovalForAll",
      "outputs": [],
      "stateMutability": "nonpayable",
      "type": "function"
    },
    {
      "inputs": [
        {
          "internalType": "bytes4",
          "name": "interfaceId",
          "type": "bytes4"
        }
      ],
      "name": "supportsInterface",
      "outputs": [
        {
          "internalType": "bool",
          "name": "",
          "type": "bool"
        }
      ],
      "stateMutability": "view",
      "type": "function"
    },
    {
      "inputs": [],
      "name": "symbol",
      "outputs": [
        {
          "internalType": "string",
          "name": "",
          "type": "string"
        }
      ],
      "stateMutability": "view",
      "type": "function"
    },
    {
      "inputs": [
        {
          "internalType": "uint256",
          "name": "tokenId",
          "type": "uint256"
        }
      ],
      "name": "tokenURI",
      "outputs": [
        {
          "internalType": "string",
          "name": "",
          "type": "string"
        }
      ],
      "stateMutability": "view",
      "type": "function"
    },
    {
      "inputs": [
        {
          "internalType": "address",
          "name": "from",
          "type": "address"
        },
        {
          "internalType": "address",
          "name": "to",
          "type": "address"
        },
        {
          "internalType": "uint256",
          "name": "tokenId",
          "type": "uint256"
        }
      ],
      "name": "transferFrom",
      "outputs": [],
      "stateMutability": "nonpayable",
      "type": "function"
    },
    {
      "inputs": [
        {
          "internalType": "uint256",
          "name": "_listingFeePercent",
          "type": "uint256"
        }
      ],
      "name": "updateListingFeePercent",
      "outputs": [],
      "stateMutability": "nonpayable",
      "type": "function"
    }
  ],
  "bytecode": "0x608060405260146008553480156200001657600080fd5b506040518060400160405280600881526020017f4e465453544f52450000000000000000000000000000000000000000000000008152506040518060400160405280600481526020017f4e4654530000000000000000000000000000000000000000000000000000000081525081600090816200009491906200036a565b508060019081620000a691906200036a565b50505033600760006101000a81548173ffffffffffffffffffffffffffffffffffffffff021916908373ffffffffffffffffffffffffffffffffffffffff16021790555062000451565b600081519050919050565b7f4e487b7100000000000000000000000000000000000000000000000000000000600052604160045260246000fd5b7f4e487b7100000000000000000000000000000000000000000000000000000000600052602260045260246000fd5b600060028204905060018216806200017257607f821691505b6020821081036200018857620001876200012a565b5b50919050565b60008190508160005260206000209050919050565b60006020601f8301049050919050565b600082821b905092915050565b600060088302620001f27fffffffffffffffffffffffffffffffffffffffffffffffffffffffffffffffff82620001b3565b620001fe8683620001b3565b95508019841693508086168417925050509392505050565b6000819050919050565b6000819050919050565b60006200024b620002456200023f8462000216565b62000220565b62000216565b9050919050565b6000819050919050565b62000267836200022a565b6200027f620002768262000252565b848454620001c0565b825550505050565b600090565b6200029662000287565b620002a38184846200025c565b505050565b5b81811015620002cb57620002bf6000826200028c565b600181019050620002a9565b5050565b601f8211156200031a57620002e4816200018e565b620002ef84620001a3565b81016020851015620002ff578190505b620003176200030e85620001a3565b830182620002a8565b50505b505050565b600082821c905092915050565b60006200033f600019846008026200031f565b1980831691505092915050565b60006200035a83836200032c565b9150826002028217905092915050565b6200037582620000f0565b67ffffffffffffffff811115620003915762000390620000fb565b5b6200039d825462000159565b620003aa828285620002cf565b600060209050601f831160018114620003e25760008415620003cd578287015190505b620003d985826200034c565b86555062000449565b601f198416620003f2866200018e565b60005b828110156200041c57848901518255600182019150602085019450602081019050620003f5565b868310156200043c578489015162000438601f8916826200032c565b8355505b6001600288020188555050505b505050505050565b61373c80620004616000396000f3fe6080604052600436106101405760003560e01c8063629cb2e4116100b65780639b1225c41161006f5780639b1225c414610486578063a22cb465146104a2578063ac6a9185146104cb578063b88d4fde146104f4578063c87b56dd1461051d578063e985e9c51461055a57610140565b8063629cb2e41461034e5780636352211e14610379578063650025a0146103b657806370a08231146103e157806372b3b6201461041e57806395d89b411461045b57610140565b80630ea59c4b116101085780630ea59c4b1461023e57806323b872dd1461027b57806342842e0e146102a45780634b58ffaa146102cd57806356189236146102f85780636151ff2e1461032357610140565b806301ffc9a71461014557806306fc12451461018257806306fdde03146101ad578063081812fc146101d8578063095ea7b314610215575b600080fd5b34801561015157600080fd5b5061016c6004803603810190610167919061270a565b610597565b6040516101799190612752565b60405180910390f35b34801561018e57600080fd5b506101976105f8565b6040516101a49190612786565b60405180910390f35b3480156101b957600080fd5b506101c2610602565b6040516101cf9190612831565b60405180910390f35b3480156101e457600080fd5b506101ff60048036038101906101fa919061287f565b610694565b60405161020c91906128ed565b60405180910390f35b34801561022157600080fd5b5061023c60048036038101906102379190612934565b6106b0565b005b34801561024a57600080fd5b506102656004803603810190610260919061287f565b6106c6565b60405161027291906129f9565b60405180910390f35b34801561028757600080fd5b506102a2600480360381019061029d9190612a14565b6107b3565b005b3480156102b057600080fd5b506102cb60048036038101906102c69190612a14565b6108b5565b005b3480156102d957600080fd5b506102e26108d5565b6040516102ef9190612b6b565b60405180910390f35b34801561030457600080fd5b5061030d610a7c565b60405161031a9190612786565b60405180910390f35b34801561032f57600080fd5b50610338610a86565b6040516103459190612786565b60405180910390f35b34801561035a57600080fd5b50610363610a8c565b6040516103709190612b6b565b60405180910390f35b34801561038557600080fd5b506103a0600480360381019061039b919061287f565b610e3a565b6040516103ad91906128ed565b60405180910390f35b3480156103c257600080fd5b506103cb610e4c565b6040516103d89190612b9c565b60405180910390f35b3480156103ed57600080fd5b5061040860048036038101906104039190612bb7565b610e72565b6040516104159190612786565b60405180910390f35b34801561042a57600080fd5b5061044560048036038101906104409190612d19565b610f2c565b6040516104529190612786565b60405180910390f35b34801561046757600080fd5b50610470610fb7565b60405161047d9190612831565b60405180910390f35b6104a0600480360381019061049b919061287f565b611049565b005b3480156104ae57600080fd5b506104c960048036038101906104c49190612da1565b61123e565b005b3480156104d757600080fd5b506104f260048036038101906104ed919061287f565b611254565b005b34801561050057600080fd5b5061051b60048036038101906105169190612e82565b6112ee565b005b34801561052957600080fd5b50610544600480360381019061053f919061287f565b61130b565b6040516105519190612831565b60405180910390f35b34801561056657600080fd5b50610581600480360381019061057c9190612f05565b61141e565b60405161058e9190612752565b60405180910390f35b6000634906490660e01b7bffffffffffffffffffffffffffffffffffffffffffffffffffffffff1916827bffffffffffffffffffffffffffffffffffffffffffffffffffffffff191614806105f157506105f0826114b2565b5b9050919050565b6000600854905090565b60606000805461061190612f74565b80601f016020809104026020016040519081016040528092919081815260200182805461063d90612f74565b801561068a5780601f1061065f5761010080835404028352916020019161068a565b820191906000526020600020905b81548152906001019060200180831161066d57829003601f168201915b5050505050905090565b600061069f82611594565b506106a98261161c565b9050919050565b6106c282826106bd611659565b611661565b5050565b6106ce61264a565b600b6000838152602001908152602001600020604051806080016040529081600082015481526020016001820160009054906101000a900473ffffffffffffffffffffffffffffffffffffffff1673ffffffffffffffffffffffffffffffffffffffff1673ffffffffffffffffffffffffffffffffffffffff1681526020016002820160009054906101000a900473ffffffffffffffffffffffffffffffffffffffff1673ffffffffffffffffffffffffffffffffffffffff1673ffffffffffffffffffffffffffffffffffffffff1681526020016003820154815250509050919050565b600073ffffffffffffffffffffffffffffffffffffffff168273ffffffffffffffffffffffffffffffffffffffff16036108255760006040517f64a0ae9200000000000000000000000000000000000000000000000000000000815260040161081c91906128ed565b60405180910390fd5b60006108398383610834611659565b611673565b90508373ffffffffffffffffffffffffffffffffffffffff168173ffffffffffffffffffffffffffffffffffffffff16146108af578382826040517f64283d7b0000000000000000000000000000000000000000000000000000000081526004016108a693929190612fa5565b60405180910390fd5b50505050565b6108d0838383604051806020016040528060008152506112ee565b505050565b60606000600954905060008167ffffffffffffffff8111156108fa576108f9612bee565b5b60405190808252806020026020018201604052801561093357816020015b61092061264a565b8152602001906001900390816109185790505b5090506000805b83811015610a72576000600182610951919061300b565b90506000600b6000838152602001908152602001600020905080604051806080016040529081600082015481526020016001820160009054906101000a900473ffffffffffffffffffffffffffffffffffffffff1673ffffffffffffffffffffffffffffffffffffffff1673ffffffffffffffffffffffffffffffffffffffff1681526020016002820160009054906101000a900473ffffffffffffffffffffffffffffffffffffffff1673ffffffffffffffffffffffffffffffffffffffff1673ffffffffffffffffffffffffffffffffffffffff168152602001600382015481525050858581518110610a4957610a4861303f565b5b6020026020010181905250600184610a61919061300b565b93505050808060010191505061093a565b5081935050505090565b6000600954905090565b60085481565b60606000600954905060008060005b83811015610bad573373ffffffffffffffffffffffffffffffffffffffff16600b6000600184610acb919061300b565b815260200190815260200160002060010160009054906101000a900473ffffffffffffffffffffffffffffffffffffffff1673ffffffffffffffffffffffffffffffffffffffff161480610b8c57503373ffffffffffffffffffffffffffffffffffffffff16600b6000600184610b42919061300b565b815260200190815260200160002060020160009054906101000a900473ffffffffffffffffffffffffffffffffffffffff1673ffffffffffffffffffffffffffffffffffffffff16145b15610ba0578280610b9c9061306e565b9350505b8080600101915050610a9b565b5060008267ffffffffffffffff811115610bca57610bc9612bee565b5b604051908082528060200260200182016040528015610c0357816020015b610bf061264a565b815260200190600190039081610be85790505b50905060005b84811015610e2f573373ffffffffffffffffffffffffffffffffffffffff16600b6000600184610c39919061300b565b815260200190815260200160002060010160009054906101000a900473ffffffffffffffffffffffffffffffffffffffff1673ffffffffffffffffffffffffffffffffffffffff161480610cfa57503373ffffffffffffffffffffffffffffffffffffffff16600b6000600184610cb0919061300b565b815260200190815260200160002060020160009054906101000a900473ffffffffffffffffffffffffffffffffffffffff1673ffffffffffffffffffffffffffffffffffffffff16145b15610e22576000600182610d0e919061300b565b90506000600b6000838152602001908152602001600020905080604051806080016040529081600082015481526020016001820160009054906101000a900473ffffffffffffffffffffffffffffffffffffffff1673ffffffffffffffffffffffffffffffffffffffff1673ffffffffffffffffffffffffffffffffffffffff1681526020016002820160009054906101000a900473ffffffffffffffffffffffffffffffffffffffff1673ffffffffffffffffffffffffffffffffffffffff1673ffffffffffffffffffffffffffffffffffffffff168152602001600382015481525050848681518110610e0657610e0561303f565b5b60200260200101819052508480610e1c9061306e565b95505050505b8080600101915050610c09565b508094505050505090565b6000610e4582611594565b9050919050565b600760009054906101000a900473ffffffffffffffffffffffffffffffffffffffff1681565b60008073ffffffffffffffffffffffffffffffffffffffff168273ffffffffffffffffffffffffffffffffffffffff1603610ee55760006040517f89c62b64000000000000000000000000000000000000000000000000000000008152600401610edc91906128ed565b60405180910390fd5b600360008373ffffffffffffffffffffffffffffffffffffffff1673ffffffffffffffffffffffffffffffffffffffff168152602001908152602001600020549050919050565b6000808211610f70576040517f08c379a0000000000000000000000000000000000000000000000000000000008152600401610f6790613102565b60405180910390fd5b60096000815480929190610f839061306e565b919050555060006009549050610f99338261188d565b610fa381856118ab565b610fad8184611907565b8091505092915050565b606060018054610fc690612f74565b80601f0160208091040260200160405190810160405280929190818152602001828054610ff290612f74565b801561103f5780601f106110145761010080835404028352916020019161103f565b820191906000526020600020905b81548152906001019060200180831161102257829003601f168201915b5050505050905090565b6000600b6000838152602001908152602001600020905060008160030154905060008260020160009054906101000a900473ffffffffffffffffffffffffffffffffffffffff1690508134146110d4576040517f08c379a00000000000000000000000000000000000000000000000000000000081526004016110cb90613194565b60405180910390fd5b338360020160006101000a81548173ffffffffffffffffffffffffffffffffffffffff021916908373ffffffffffffffffffffffffffffffffffffffff160217905550600a600081548092919061112a9061306e565b919050555061115e8360010160009054906101000a900473ffffffffffffffffffffffffffffffffffffffff163386611a10565b600060646008548461117091906131b4565b61117a9190613225565b9050600760009054906101000a900473ffffffffffffffffffffffffffffffffffffffff1673ffffffffffffffffffffffffffffffffffffffff166108fc829081150290604051600060405180830381858888f193505050501580156111e4573d6000803e3d6000fd5b508173ffffffffffffffffffffffffffffffffffffffff166108fc823461120b9190613256565b9081150290604051600060405180830381858888f19350505050158015611236573d6000803e3d6000fd5b505050505050565b611250611249611659565b8383611b7d565b5050565b600760009054906101000a900473ffffffffffffffffffffffffffffffffffffffff1673ffffffffffffffffffffffffffffffffffffffff163373ffffffffffffffffffffffffffffffffffffffff16146112e4576040517f08c379a00000000000000000000000000000000000000000000000000000000081526004016112db906132fc565b60405180910390fd5b8060088190555050565b6112f98484846107b3565b61130584848484611cec565b50505050565b606061131682611594565b50600060066000848152602001908152602001600020805461133790612f74565b80601f016020809104026020016040519081016040528092919081815260200182805461136390612f74565b80156113b05780601f10611385576101008083540402835291602001916113b0565b820191906000526020600020905b81548152906001019060200180831161139357829003601f168201915b5050505050905060006113c1611ea3565b905060008151036113d6578192505050611419565b60008251111561140b5780826040516020016113f3929190613358565b60405160208183030381529060405292505050611419565b61141484611eba565b925050505b919050565b6000600560008473ffffffffffffffffffffffffffffffffffffffff1673ffffffffffffffffffffffffffffffffffffffff16815260200190815260200160002060008373ffffffffffffffffffffffffffffffffffffffff1673ffffffffffffffffffffffffffffffffffffffff16815260200190815260200160002060009054906101000a900460ff16905092915050565b60007f80ac58cd000000000000000000000000000000000000000000000000000000007bffffffffffffffffffffffffffffffffffffffffffffffffffffffff1916827bffffffffffffffffffffffffffffffffffffffffffffffffffffffff1916148061157d57507f5b5e139f000000000000000000000000000000000000000000000000000000007bffffffffffffffffffffffffffffffffffffffffffffffffffffffff1916827bffffffffffffffffffffffffffffffffffffffffffffffffffffffff1916145b8061158d575061158c82611f23565b5b9050919050565b6000806115a083611f8d565b9050600073ffffffffffffffffffffffffffffffffffffffff168173ffffffffffffffffffffffffffffffffffffffff160361161357826040517f7e27328900000000000000000000000000000000000000000000000000000000815260040161160a9190612786565b60405180910390fd5b80915050919050565b60006004600083815260200190815260200160002060009054906101000a900473ffffffffffffffffffffffffffffffffffffffff169050919050565b600033905090565b61166e8383836001611fca565b505050565b60008061167f84611f8d565b9050600073ffffffffffffffffffffffffffffffffffffffff168373ffffffffffffffffffffffffffffffffffffffff16146116c1576116c081848661218f565b5b600073ffffffffffffffffffffffffffffffffffffffff168173ffffffffffffffffffffffffffffffffffffffff161461175257611703600085600080611fca565b6001600360008373ffffffffffffffffffffffffffffffffffffffff1673ffffffffffffffffffffffffffffffffffffffff168152602001908152602001600020600082825403925050819055505b600073ffffffffffffffffffffffffffffffffffffffff168573ffffffffffffffffffffffffffffffffffffffff16146117d5576001600360008773ffffffffffffffffffffffffffffffffffffffff1673ffffffffffffffffffffffffffffffffffffffff168152602001908152602001600020600082825401925050819055505b846002600086815260200190815260200160002060006101000a81548173ffffffffffffffffffffffffffffffffffffffff021916908373ffffffffffffffffffffffffffffffffffffffff160217905550838573ffffffffffffffffffffffffffffffffffffffff168273ffffffffffffffffffffffffffffffffffffffff167fddf252ad1be2c89b69c2b068fc378daa952ba7f163c4a11628f55a4df523b3ef60405160405180910390a4809150509392505050565b6118a7828260405180602001604052806000815250612253565b5050565b806006600084815260200190815260200160002090816118cb9190613528565b507ff8e1a15aba9398e019f0b49df1a4fde98ee17ae345cb5f6b5e2c27f5033e8ce7826040516118fb9190612786565b60405180910390a15050565b60405180608001604052808381526020013373ffffffffffffffffffffffffffffffffffffffff1681526020013373ffffffffffffffffffffffffffffffffffffffff16815260200182815250600b60008481526020019081526020016000206000820151816000015560208201518160010160006101000a81548173ffffffffffffffffffffffffffffffffffffffff021916908373ffffffffffffffffffffffffffffffffffffffff16021790555060408201518160020160006101000a81548173ffffffffffffffffffffffffffffffffffffffff021916908373ffffffffffffffffffffffffffffffffffffffff160217905550606082015181600301559050505050565b600073ffffffffffffffffffffffffffffffffffffffff168273ffffffffffffffffffffffffffffffffffffffff1603611a825760006040517f64a0ae92000000000000000000000000000000000000000000000000000000008152600401611a7991906128ed565b60405180910390fd5b6000611a9083836000611673565b9050600073ffffffffffffffffffffffffffffffffffffffff168173ffffffffffffffffffffffffffffffffffffffff1603611b0357816040517f7e273289000000000000000000000000000000000000000000000000000000008152600401611afa9190612786565b60405180910390fd5b8373ffffffffffffffffffffffffffffffffffffffff168173ffffffffffffffffffffffffffffffffffffffff1614611b77578382826040517f64283d7b000000000000000000000000000000000000000000000000000000008152600401611b6e93929190612fa5565b60405180910390fd5b50505050565b600073ffffffffffffffffffffffffffffffffffffffff168273ffffffffffffffffffffffffffffffffffffffff1603611bee57816040517f5b08ba18000000000000000000000000000000000000000000000000000000008152600401611be591906128ed565b60405180910390fd5b80600560008573ffffffffffffffffffffffffffffffffffffffff1673ffffffffffffffffffffffffffffffffffffffff16815260200190815260200160002060008473ffffffffffffffffffffffffffffffffffffffff1673ffffffffffffffffffffffffffffffffffffffff16815260200190815260200160002060006101000a81548160ff0219169083151502179055508173ffffffffffffffffffffffffffffffffffffffff168373ffffffffffffffffffffffffffffffffffffffff167f17307eab39ab6107e8899845ad3d59bd9653f200f220920489ca2b5937696c3183604051611cdf9190612752565b60405180910390a3505050565b60008373ffffffffffffffffffffffffffffffffffffffff163b1115611e9d578273ffffffffffffffffffffffffffffffffffffffff1663150b7a02611d30611659565b8685856040518563ffffffff1660e01b8152600401611d52949392919061364f565b6020604051808303816000875af1925050508015611d8e57506040513d601f19601f82011682018060405250810190611d8b91906136b0565b60015b611e12573d8060008114611dbe576040519150601f19603f3d011682016040523d82523d6000602084013e611dc3565b606091505b506000815103611e0a57836040517f64a0ae92000000000000000000000000000000000000000000000000000000008152600401611e0191906128ed565b60405180910390fd5b805181602001fd5b63150b7a0260e01b7bffffffffffffffffffffffffffffffffffffffffffffffffffffffff1916817bffffffffffffffffffffffffffffffffffffffffffffffffffffffff191614611e9b57836040517f64a0ae92000000000000000000000000000000000000000000000000000000008152600401611e9291906128ed565b60405180910390fd5b505b50505050565b606060405180602001604052806000815250905090565b6060611ec582611594565b506000611ed0611ea3565b90506000815111611ef05760405180602001604052806000815250611f1b565b80611efa8461226f565b604051602001611f0b929190613358565b6040516020818303038152906040525b915050919050565b60007f01ffc9a7000000000000000000000000000000000000000000000000000000007bffffffffffffffffffffffffffffffffffffffffffffffffffffffff1916827bffffffffffffffffffffffffffffffffffffffffffffffffffffffff1916149050919050565b60006002600083815260200190815260200160002060009054906101000a900473ffffffffffffffffffffffffffffffffffffffff169050919050565b80806120035750600073ffffffffffffffffffffffffffffffffffffffff168273ffffffffffffffffffffffffffffffffffffffff1614155b1561213757600061201384611594565b9050600073ffffffffffffffffffffffffffffffffffffffff168373ffffffffffffffffffffffffffffffffffffffff161415801561207e57508273ffffffffffffffffffffffffffffffffffffffff168173ffffffffffffffffffffffffffffffffffffffff1614155b8015612091575061208f818461141e565b155b156120d357826040517fa9fbf51f0000000000000000000000000000000000000000000000000000000081526004016120ca91906128ed565b60405180910390fd5b811561213557838573ffffffffffffffffffffffffffffffffffffffff168273ffffffffffffffffffffffffffffffffffffffff167f8c5be1e5ebec7d5bd14f71427d1e84f3dd0314c0f7b2291e5b200ac8c7c3b92560405160405180910390a45b505b836004600085815260200190815260200160002060006101000a81548173ffffffffffffffffffffffffffffffffffffffff021916908373ffffffffffffffffffffffffffffffffffffffff16021790555050505050565b61219a83838361233d565b61224e57600073ffffffffffffffffffffffffffffffffffffffff168373ffffffffffffffffffffffffffffffffffffffff160361220f57806040517f7e2732890000000000000000000000000000000000000000000000000000000081526004016122069190612786565b60405180910390fd5b81816040517f177e802f0000000000000000000000000000000000000000000000000000000081526004016122459291906136dd565b60405180910390fd5b505050565b61225d83836123fe565b61226a6000848484611cec565b505050565b60606000600161227e846124f7565b01905060008167ffffffffffffffff81111561229d5761229c612bee565b5b6040519080825280601f01601f1916602001820160405280156122cf5781602001600182028036833780820191505090505b509050600082602001820190505b600115612332578080600190039150507f3031323334353637383961626364656600000000000000000000000000000000600a86061a8153600a8581612326576123256131f6565b5b049450600085036122dd575b819350505050919050565b60008073ffffffffffffffffffffffffffffffffffffffff168373ffffffffffffffffffffffffffffffffffffffff16141580156123f557508273ffffffffffffffffffffffffffffffffffffffff168473ffffffffffffffffffffffffffffffffffffffff1614806123b657506123b5848461141e565b5b806123f457508273ffffffffffffffffffffffffffffffffffffffff166123dc8361161c565b73ffffffffffffffffffffffffffffffffffffffff16145b5b90509392505050565b600073ffffffffffffffffffffffffffffffffffffffff168273ffffffffffffffffffffffffffffffffffffffff16036124705760006040517f64a0ae9200000000000000000000000000000000000000000000000000000000815260040161246791906128ed565b60405180910390fd5b600061247e83836000611673565b9050600073ffffffffffffffffffffffffffffffffffffffff168173ffffffffffffffffffffffffffffffffffffffff16146124f25760006040517f73c6ac6e0000000000000000000000000000000000000000000000000000000081526004016124e991906128ed565b60405180910390fd5b505050565b600080600090507a184f03e93ff9f4daa797ed6e38ed64bf6a1f0100000000000000008310612555577a184f03e93ff9f4daa797ed6e38ed64bf6a1f010000000000000000838161254b5761254a6131f6565b5b0492506040810190505b6d04ee2d6d415b85acef81000000008310612592576d04ee2d6d415b85acef81000000008381612588576125876131f6565b5b0492506020810190505b662386f26fc1000083106125c157662386f26fc1000083816125b7576125b66131f6565b5b0492506010810190505b6305f5e10083106125ea576305f5e10083816125e0576125df6131f6565b5b0492506008810190505b612710831061260f576127108381612605576126046131f6565b5b0492506004810190505b606483106126325760648381612628576126276131f6565b5b0492506002810190505b600a8310612641576001810190505b80915050919050565b604051806080016040528060008152602001600073ffffffffffffffffffffffffffffffffffffffff168152602001600073ffffffffffffffffffffffffffffffffffffffff168152602001600081525090565b6000604051905090565b600080fd5b600080fd5b60007fffffffff0000000000000000000000000000000000000000000000000000000082169050919050565b6126e7816126b2565b81146126f257600080fd5b50565b600081359050612704816126de565b92915050565b6000602082840312156127205761271f6126a8565b5b600061272e848285016126f5565b91505092915050565b60008115159050919050565b61274c81612737565b82525050565b60006020820190506127676000830184612743565b92915050565b6000819050919050565b6127808161276d565b82525050565b600060208201905061279b6000830184612777565b92915050565b600081519050919050565b600082825260208201905092915050565b60005b838110156127db5780820151818401526020810190506127c0565b60008484015250505050565b6000601f19601f8301169050919050565b6000612803826127a1565b61280d81856127ac565b935061281d8185602086016127bd565b612826816127e7565b840191505092915050565b6000602082019050818103600083015261284b81846127f8565b905092915050565b61285c8161276d565b811461286757600080fd5b50565b60008135905061287981612853565b92915050565b600060208284031215612895576128946126a8565b5b60006128a38482850161286a565b91505092915050565b600073ffffffffffffffffffffffffffffffffffffffff82169050919050565b60006128d7826128ac565b9050919050565b6128e7816128cc565b82525050565b600060208201905061290260008301846128de565b92915050565b612911816128cc565b811461291c57600080fd5b50565b60008135905061292e81612908565b92915050565b6000806040838503121561294b5761294a6126a8565b5b60006129598582860161291f565b925050602061296a8582860161286a565b9150509250929050565b61297d8161276d565b82525050565b600061298e826128ac565b9050919050565b61299e81612983565b82525050565b6080820160008201516129ba6000850182612974565b5060208201516129cd6020850182612995565b5060408201516129e06040850182612995565b5060608201516129f36060850182612974565b50505050565b6000608082019050612a0e60008301846129a4565b92915050565b600080600060608486031215612a2d57612a2c6126a8565b5b6000612a3b8682870161291f565b9350506020612a4c8682870161291f565b9250506040612a5d8682870161286a565b9150509250925092565b600081519050919050565b600082825260208201905092915050565b6000819050602082019050919050565b608082016000820151612aa96000850182612974565b506020820151612abc6020850182612995565b506040820151612acf6040850182612995565b506060820151612ae26060850182612974565b50505050565b6000612af48383612a93565b60808301905092915050565b6000602082019050919050565b6000612b1882612a67565b612b228185612a72565b9350612b2d83612a83565b8060005b83811015612b5e578151612b458882612ae8565b9750612b5083612b00565b925050600181019050612b31565b5085935050505092915050565b60006020820190508181036000830152612b858184612b0d565b905092915050565b612b9681612983565b82525050565b6000602082019050612bb16000830184612b8d565b92915050565b600060208284031215612bcd57612bcc6126a8565b5b6000612bdb8482850161291f565b91505092915050565b600080fd5b600080fd5b7f4e487b7100000000000000000000000000000000000000000000000000000000600052604160045260246000fd5b612c26826127e7565b810181811067ffffffffffffffff82111715612c4557612c44612bee565b5b80604052505050565b6000612c5861269e565b9050612c648282612c1d565b919050565b600067ffffffffffffffff821115612c8457612c83612bee565b5b612c8d826127e7565b9050602081019050919050565b82818337600083830152505050565b6000612cbc612cb784612c69565b612c4e565b905082815260208101848484011115612cd857612cd7612be9565b5b612ce3848285612c9a565b509392505050565b600082601f830112612d0057612cff612be4565b5b8135612d10848260208601612ca9565b91505092915050565b60008060408385031215612d3057612d2f6126a8565b5b600083013567ffffffffffffffff811115612d4e57612d4d6126ad565b5b612d5a85828601612ceb565b9250506020612d6b8582860161286a565b9150509250929050565b612d7e81612737565b8114612d8957600080fd5b50565b600081359050612d9b81612d75565b92915050565b60008060408385031215612db857612db76126a8565b5b6000612dc68582860161291f565b9250506020612dd785828601612d8c565b9150509250929050565b600067ffffffffffffffff821115612dfc57612dfb612bee565b5b612e05826127e7565b9050602081019050919050565b6000612e25612e2084612de1565b612c4e565b905082815260208101848484011115612e4157612e40612be9565b5b612e4c848285612c9a565b509392505050565b600082601f830112612e6957612e68612be4565b5b8135612e79848260208601612e12565b91505092915050565b60008060008060808587031215612e9c57612e9b6126a8565b5b6000612eaa8782880161291f565b9450506020612ebb8782880161291f565b9350506040612ecc8782880161286a565b925050606085013567ffffffffffffffff811115612eed57612eec6126ad565b5b612ef987828801612e54565b91505092959194509250565b60008060408385031215612f1c57612f1b6126a8565b5b6000612f2a8582860161291f565b9250506020612f3b8582860161291f565b9150509250929050565b7f4e487b7100000000000000000000000000000000000000000000000000000000600052602260045260246000fd5b60006002820490506001821680612f8c57607f821691505b602082108103612f9f57612f9e612f45565b5b50919050565b6000606082019050612fba60008301866128de565b612fc76020830185612777565b612fd460408301846128de565b949350505050565b7f4e487b7100000000000000000000000000000000000000000000000000000000600052601160045260246000fd5b60006130168261276d565b91506130218361276d565b925082820190508082111561303957613038612fdc565b5b92915050565b7f4e487b7100000000000000000000000000000000000000000000000000000000600052603260045260246000fd5b60006130798261276d565b91507fffffffffffffffffffffffffffffffffffffffffffffffffffffffffffffffff82036130ab576130aa612fdc565b5b600182019050919050565b7f5072696365206d7573742062652067726561746572207468616e207a65726f00600082015250565b60006130ec601f836127ac565b91506130f7826130b6565b602082019050919050565b6000602082019050818103600083015261311b816130df565b9050919050565b7f506c65617365207375626d6974207468652061736b696e67207072696365207460008201527f6f20636f6d706c65746520746865207075726368617365000000000000000000602082015250565b600061317e6037836127ac565b915061318982613122565b604082019050919050565b600060208201905081810360008301526131ad81613171565b9050919050565b60006131bf8261276d565b91506131ca8361276d565b92508282026131d88161276d565b915082820484148315176131ef576131ee612fdc565b5b5092915050565b7f4e487b7100000000000000000000000000000000000000000000000000000000600052601260045260246000fd5b60006132308261276d565b915061323b8361276d565b92508261324b5761324a6131f6565b5b828204905092915050565b60006132618261276d565b915061326c8361276d565b925082820390508181111561328457613283612fdc565b5b92915050565b7f4f6e6c79206f776e65722063616e2063616c6c20746869732066756e6374696f60008201527f6e00000000000000000000000000000000000000000000000000000000000000602082015250565b60006132e66021836127ac565b91506132f18261328a565b604082019050919050565b60006020820190508181036000830152613315816132d9565b9050919050565b600081905092915050565b6000613332826127a1565b61333c818561331c565b935061334c8185602086016127bd565b80840191505092915050565b60006133648285613327565b91506133708284613327565b91508190509392505050565b60008190508160005260206000209050919050565b60006020601f8301049050919050565b600082821b905092915050565b6000600883026133de7fffffffffffffffffffffffffffffffffffffffffffffffffffffffffffffffff826133a1565b6133e886836133a1565b95508019841693508086168417925050509392505050565b6000819050919050565b600061342561342061341b8461276d565b613400565b61276d565b9050919050565b6000819050919050565b61343f8361340a565b61345361344b8261342c565b8484546133ae565b825550505050565b600090565b61346861345b565b613473818484613436565b505050565b5b818110156134975761348c600082613460565b600181019050613479565b5050565b601f8211156134dc576134ad8161337c565b6134b684613391565b810160208510156134c5578190505b6134d96134d185613391565b830182613478565b50505b505050565b600082821c905092915050565b60006134ff600019846008026134e1565b1980831691505092915050565b600061351883836134ee565b9150826002028217905092915050565b613531826127a1565b67ffffffffffffffff81111561354a57613549612bee565b5b6135548254612f74565b61355f82828561349b565b600060209050601f8311600181146135925760008415613580578287015190505b61358a858261350c565b8655506135f2565b601f1984166135a08661337c565b60005b828110156135c8578489015182556001820191506020850194506020810190506135a3565b868310156135e557848901516135e1601f8916826134ee565b8355505b6001600288020188555050505b505050505050565b600081519050919050565b600082825260208201905092915050565b6000613621826135fa565b61362b8185613605565b935061363b8185602086016127bd565b613644816127e7565b840191505092915050565b600060808201905061366460008301876128de565b61367160208301866128de565b61367e6040830185612777565b81810360608301526136908184613616565b905095945050505050565b6000815190506136aa816126de565b92915050565b6000602082840312156136c6576136c56126a8565b5b60006136d48482850161369b565b91505092915050565b60006040820190506136f260008301856128de565b6136ff6020830184612777565b939250505056fea2646970667358221220600c2d6e02ef5cec619235239660a53cd63e9ea29c5d67580b49c262429071cc64736f6c63430008180033",
  "linkReferences": {},
  "deployedLinkReferences": {}
}